:020000040800F2
:1000000000000A20FD1F0008751E0008811E000860
:10001000951E0008971E0008991E00084D20000834
:1000200000000000000000000000000091CF010867
:100030009B1E00080000000031CF010879A60108CE
:100040004D2000084D2000089D1E00084D2000088E
:100050004D2000084D2000084D2000084D200008CC
:100060004D2000084D2000084D200008CD1E00083E
:100070007DFB02084D200008E5FA02084D2000082B
:100080004D200008EBFA020891FB0208F1FA020881
:100090004D2000084D2000084D200008A5FB020857
:1000A0004D2000084D200008FDFA020815FD020849
:1000B000C1FC020891FC02084D2000084D200008F8
:1000C00035FD02084D2000084D200008A91E00083B
:1000D0004D2000084D2000084D2000084D2000084C
:1000E0004D2000084D2000080DFF02084D2000089B
:1000F000A1FF0208C9FB02087D8302084D20000809
:1001000025840208B51E00084D2000084D20000877
:100110004D2000084D2000084D2000084D2000080B
:100120004D200008B5FC0208E1FB02084D20000844
:100130004D20000875FD02084D2000084D200008E4
:100140004D2000084D2000084D2000084D200008DB
:100150004D2000084D2000084D2000084D200008CB
:10016000D5FB02084D200008A9FC02084D2000081C
:100170004D2000084D2000084D200008C11E000839
:100180004D2000084D2000084D2000084D2000089B
:100190004D2000084D2000084D2000084D2000088B
:1001A0004D2000084D2000084D2000084D2000087B
:1001B0004D2000084D2000084D2000084D2000086B
:1001C0004D2000084D2000084D2000084D2000085B
:1001D0004D2000084D2000084D2000084D2000084B
:1001E0004D2000084D2000084D2000084D2000083B
:1001F0004D2000084D2000084D2000084D2000082B
:100200004D2000084D2000084D2000084D2000081A
:100210004D2000084D2000084D2000084D2000080A
:100220004D2000084D2000084D2000084D200008FA
:100230004D2000084D2000084D2000084D200008EA
:0C0240004D2000084D2000084D20000853
:1002500010B5054C237833B9044B13B10448AFF300
:1002600000800123237010BD501A00200000000000
:10027000ACFF030808B5034B1BB103490348AFF3B8
:10028000008008BD00000000541A0020ACFF0308E5
:1002900010F8012B11F8013B012A28BF9A42F7D030
:1002A000D01A7047034613F8012B002AFBD1181A05
:1002B0000138704781F0004102E000BF83F0004345
:1002C00030B54FEA41044FEA430594EA050F08BFF1
:1002D00090EA020F1FBF54EA000C55EA020C7FEAB5
:1002E000645C7FEA655C00F0E2804FEA5454D4EB32
:1002F0005555B8BF6D420CDD2C4480EA020281EAFC
:10030000030382EA000083EA010180EA020281EA33
:100310000303362D88BF30BD11F0004F4FEA013185
:100320004FF4801C4CEA113102D0404261EB410194
:1003300013F0004F4FEA03334CEA133302D052421A
:1003400063EB430394EA050F00F0A780A4F10104D6
:10035000D5F1200E0DDB02FA0EFC22FA05F2801810
:1003600041F1000103FA0EF2801843FA05F35941F6
:100370000EE0A5F120050EF1200E012A03FA0EFC75
:1003800028BF4CF0020C43FA05F3C01851EBE3719F
:1003900001F0004507D54FF0000EDCF1000C7EEBBC
:1003A00000006EEB0101B1F5801F1BD3B1F5001FFA
:1003B0000CD349085FEA30004FEA3C0C04F1010419
:1003C0004FEA445212F5800F80F09A80BCF1004F42
:1003D00008BF5FEA500C50F1000041EB045141EAC4
:1003E000050130BD5FEA4C0C404141EB0101013C8D
:1003F00028BFB1F5801FE9D291F0000F04BF01467C
:100400000020B1FA81F308BF2033A3F10B03B3F14D
:1004100020020CDA0C3208DD02F1140CC2F10C02DD
:1004200001FA0CF021FA02F10CE002F11402D8BF3B
:10043000C2F1200C01FA02F120FA0CFCDCBF41EA07
:100440000C019040E41AA2BF01EB0451294330BDD6
:100450006FEA04041F3C1CDA0C340EDC04F11404B3
:10046000C4F1200220FA04F001FA02F340EA03008A
:1004700021FA04F345EA030130BDC4F10C04C4F1D0
:10048000200220FA02F001FA04F340EA03002946B0
:1004900030BD21FA04F0294630BD94F0000F83F4FA
:1004A000801306BF81F480110134013D4EE77FEADD
:1004B000645C18BF7FEA655C29D094EA050F08BF29
:1004C00090EA020F05D054EA000C04BF194610460A
:1004D00030BD91EA030F1EBF0021002030BD5FEA4E
:1004E000545C05D14000494128BF41F0004130BD76
:1004F00014F580043CBF01F5801130BD01F00045CA
:1005000045F0FE4141F470014FF0000030BD7FEA3C
:10051000645C1ABF194610467FEA655C1CBF0B4637
:10052000024650EA013406BF52EA033591EA030F4E
:1005300041F4002130BD00BF90F0000F04BF002146
:10054000704730B54FF4806404F132044FF0000579
:100550004FF0000150E700BF90F0000F04BF0021F2
:10056000704730B54FF4806404F1320410F0004558
:1005700048BF40424FF000013EE700BF42004FEA53
:10058000E2014FEA31014FEA02701FBF12F07F43D0
:1005900093F07F4F81F06051704732F07F4208BF87
:1005A000704793F07F4F04BF41F40021704730B58E
:1005B0004FF4607401F0004521F000411CE700BFDA
:1005C00050EA010208BF704730B54FF000050AE05D
:1005D00050EA010208BF704730B511F0004502D55E
:1005E000404261EB41014FF4806404F132045FEA60
:1005F000915C3FF4D8AE4FF003025FEADC0C18BF09
:1006000003325FEADC0C18BF033202EBDC02C2F1FA
:10061000200300FA03FC20FA02F001FA03FE40EA8C
:100620000E0021FA02F11444BDE600BF70B54FF090
:10063000FF0C4CF4E06C1CEA11541DBF1CEA13556E
:1006400094EA0C0F95EA0C0F00F0DEF82C4481EAD6
:10065000030621EA4C5123EA4C5350EA013518BFF6
:1006600052EA033541F4801143F4801338D0A0FBE3
:1006700002CE4FF00005E1FB02E506F00042E0FB90
:1006800003E54FF00006E1FB03569CF0000F18BF96
:100690004EF0010EA4F1FF04B6F5007F64F540743E
:1006A00004D25FEA4E0E6D4146EB060642EAC621D1
:1006B00041EA55514FEAC52040EA5E504FEACE2E3E
:1006C000B4F1FD0C88BFBCF5E06F1ED8BEF1004F41
:1006D00008BF5FEA500E50F1000041EB045170BDBD
:1006E00006F0004646EA010140EA020081EA030101
:1006F000B4EB5C04C2BFD4EB0C0541EA045170BDFD
:1007000041F480114FF0000E013C00F3AB8014F176
:10071000360FDEBF002001F0004170BDC4F10004BF
:10072000203C35DA0C341BDC04F11404C4F1200540
:1007300000FA05F320FA04F001FA05F240EA02009B
:1007400001F0004221F0004110EBD37021FA04F6D1
:1007500042EB06015EEA430E08BF20EAD37070BD8B
:10076000C4F10C04C4F1200500FA04F320FA05F0EA
:1007700001FA04F240EA020001F0004110EBD370EC
:1007800041F100015EEA430E08BF20EAD37070BD5C
:10079000C4F1200500FA05F24EEA020E20FA04F335
:1007A00001FA05F243EA020321FA04F001F00041E4
:1007B00021FA04F220EA020000EBD3705EEA430E55
:1007C00008BF20EAD37070BD94F0000F0FD101F084
:1007D0000046400041EB010111F4801F08BF013CBD
:1007E000F7D041EA060195F0000F18BF704703F0FB
:1007F0000046520043EB030313F4801F08BF013D82
:10080000F7D043EA0603704794EA0C0F0CEA13553D
:1008100018BF95EA0C0F0CD050EA410618BF52EAF7
:100820004306D1D181EA030101F000414FF00000FD
:1008300070BD50EA410606BF1046194652EA43060B
:1008400019D094EA0C0F02D150EA013613D195EA7F
:100850000C0F05D152EA03361CBF104619460AD1C7
:1008600081EA030101F0004141F0FE4141F47001D1
:100870004FF0000070BD41F0FE4141F4780170BDC1
:1008800070B54FF0FF0C4CF4E06C1CEA11541DBF26
:100890001CEA135594EA0C0F95EA0C0F00F0A7F828
:1008A000A4EB050481EA030E52EA03354FEA013155
:1008B00000F088804FEA03334FF0805545EA131368
:1008C00043EA12634FEA022245EA111545EA106530
:1008D0004FEA00260EF000419D4208BF964244F1C7
:1008E000FD0404F5407402D25B084FEA3202B61AE6
:1008F00065EB03055B084FEA32024FF480104FF4BA
:10090000002CB6EB020E75EB030E22BFB61A75462D
:1009100040EA0C005B084FEA3202B6EB020E75EBC0
:10092000030E22BFB61A754640EA5C005B084FEA28
:100930003202B6EB020E75EB030E22BFB61A7546F5
:1009400040EA9C005B084FEA3202B6EB020E75EB00
:10095000030E22BFB61A754640EADC0055EA060EC1
:1009600018D04FEA051545EA16754FEA06164FEA04
:10097000C30343EA52734FEAC2025FEA1C1CC0D1B0
:1009800011F4801F0BD141EA00014FF000004FF03D
:10099000004CB6E711F4801F04BF01430020B4F1FE
:1009A000FD0C88BFBCF5E06F3FF6AFAEB5EB030CB6
:1009B00004BFB6EB020C5FEA500C50F1000041EBB3
:1009C000045170BD0EF0004E4EEA113114EB5C0480
:1009D000C2BFD4EB0C0541EA045170BD41F4801153
:1009E0004FF0000E013C90E645EA060E8DE60CEA5B
:1009F000135594EA0C0F08BF95EA0C0F3FF43BAF78
:100A000094EA0C0F0AD150EA01347FF434AF95EA2E
:100A10000C0F7FF425AF104619462CE795EA0C0F12
:100A200006D152EA03353FF4FDAE1046194622E7DF
:100A300050EA410618BF52EA43067FF4C5AE50EAB9
:100A400041047FF40DAF52EA43057FF4EBAE12E7A9
:100A50004FF0FF3C06E000BF4FF0010C02E000BF8A
:100A60004FF0010C4DF804CD4FEA410C7FEA6C5C6D
:100A70004FEA430C18BF7FEA6C5C1BD001B050EA10
:100A8000410C0CBF52EA430C91EA030F02BF90EAFB
:100A9000020F0020704710F1000F91EA030F58BFBA
:100AA000994208BF90422CBFD8176FEAE37040F01C
:100AB000010070474FEA410C7FEA6C5C02D150EABA
:100AC000013C07D14FEA430C7FEA6C5CD6D152EA75
:100AD000033CD3D05DF8040B704700BF844610463A
:100AE00062468C461946634600E000BF01B5FFF739
:100AF000B7FF002848BF10F1000F01BD4DF808ED09
:100B0000FFF7F4FF0CBF012000205DF808FB00BFD9
:100B10004DF808EDFFF7EAFF34BF012000205DF833
:100B200008FB00BF4DF808EDFFF7E0FF94BF012080
:100B300000205DF808FB00BF4DF808EDFFF7CEFF81
:100B400094BF012000205DF808FB00BF4DF808EDC0
:100B5000FFF7C4FF34BF012000205DF808FB00BF91
:100B60004FEA410C7FEA6C5C02D150EA013C0AD1A9
:100B70004FEA430C7FEA6C5C02D152EA033C02D19B
:100B80004FF0000070474FF0010070474FEA4102FC
:100B900012F5001215D211D56FF47873B3EB6252CF
:100BA00012D94FEAC12343F0004343EA505311F0F6
:100BB000004F23FA02F018BF404270474FF0000088
:100BC000704750EA013005D111F0004008BF6FF0C6
:100BD000004070474FF00000704700BF4A0011D23C
:100BE00012F5001211D20DD56FF47873B3EB625287
:100BF0000ED44FEAC12343F0004343EA505323FA93
:100C000002F070474FF00000704750EA013002D107
:100C10004FF0FF3070474FF0000070474FEA41023D
:100C2000B2F1E04324BFB3F5001CDCF1FE5C0DD94A
:100C300001F0004C4FEAC0024CEA5070B2F1004F94
:100C400040EB830008BF20F00100704711F0804F97
:100C500021D113F13872BCBF01F00040704741F45C
:100C600080114FEA5252C2F11802C2F1200C10FA60
:100C70000CF320FA02F018BF40F001004FEAC12344
:100C80004FEAD32303FA0CFC40EA0C0023FA02F3E8
:100C90004FEA4303CCE77FEA625307D150EA0133BE
:100CA0001EBF4FF0FE4040F44000704701F000408E
:100CB00040F0FE4040F40000704700BF53B94AB90D
:100CC000002908BF00281CBF4FF0FF314FF0FF3054
:100CD00000F0B4B9ADF1080C6DE904CE00F03CF8B9
:100CE000DDF804E0DDE9022304B0704738B50022E6
:100CF000002304460D46FFF70BFF28B9204629467E
:100D0000BDE8384000F00AB8204605F1004100F087
:100D100005F8404261EB410138BD00BFD0B500226B
:100D20000B4B06460F46FFF781FCFFF757FF0446C3
:100D3000FFF702FC0022074BFFF778FC02460B4648
:100D400030463946FFF7BAFAFFF748FF2146D0BDD3
:100D50000000F03D0000F0412DE9F04F099D0C46E8
:100D6000002B4DD18A420F4684469646B2FA82F352
:100D700060D94BB102FA03FEC3F120029F4000FA92
:100D800003FC20FA02F217434FEA1E461FFA8EF4C4
:100D90004FEA1C42B7FBF6F106FB117701FB04F0AA
:100DA00042EA0742904208D91EEB020201F1FF37E6
:100DB00002D2904200F22D813946121A1FFA8CFCA1
:100DC000B2FBF6F006FB102200FB04F44CEA024CE6
:100DD000644508D91EEB0C0C00F1FF3202D26445C9
:100DE00000F21A81104640EA0140ACEB040C0021ED
:100DF00025B12CFA03F30022C5E90032BDE8F08FDB
:100E00008B4205D90DB1C5E9000100210846F5E77F
:100E1000B3FA83F100294DD1A342C0F0F280904291
:100E200080F0EF80064623460846002DE6D0C5E94F
:100E30000063E3E7002B40F0A2808A1A4FEA1E47C6
:100E40001FFA8EF60121B2FBF7F407FB14204FEADC
:100E50001C4242EA004206FB04F090420FD91EEB0E
:100E6000020204F1FF382CBF4FF001094FF00009D6
:100E7000904203D9B9F1000F00F0C8804446121A1D
:100E80001FFA8CFCB2FBF7F007FB102200FB06F602
:100E90004CEA024C664508D91EEB0C0C00F1FF32FF
:100EA00002D2664500F2BB801046ACEB060C40EA6D
:100EB00004409DE7C1F120068B4004FA01FE22FAAE
:100EC00006F720FA06FCF4408A401F434EEA0C0362
:100ED00000FA01FE4FEA17484FEA13491FFA87FC50
:100EE000B4FBF8F008FB104449EA044400FB0CF999
:100EF000A1450ED93C1900F1FF3A2CBF4FF0010B70
:100F00004FF0000BA14503D9BBF1000F00F0938017
:100F10005046A4EB09041FFA83F9B4FBF8F308FB6D
:100F2000134403FB0CFC49EA0444A44506D93C19CC
:100F300003F1FF3801D2A4457AD8434643EA004082
:100F4000A4EB0C04A0FB02984445CC46434602D3D4
:100F500006D1CE4504D20138B9EB020C68EB070389
:100F60005DB1BEEB0C0264EB030404FA06F622FA50
:100F700001F3CC401E43C5E9006400213EE702FABC
:100F800003FEC3F1200104FA03F200FA03FCCC4093
:100F90004FEA1E4720FA01F11FFA8EF6B4FBF7F074
:100FA0000A4307FB1044110C41EA044100FB06F41C
:100FB0008C420ED91EEB010100F1FF382CBF4FF01F
:100FC00001094FF000098C4202D9B9F1000F2CD071
:100FD0004046091B92B2B1FBF7F407FB141142EA39
:100FE000014204FB06F1914207D91EEB020204F113
:100FF000FF3801D2914215D84446521A44EA0041C2
:1010000021E7861A64EB030301200EE7023C7244D9
:1010100035E702397244D0E6F4440238E3E6F4449A
:10102000023842E7023C7244E7E702387144D0E7F5
:10103000023B3C4482E702383C446AE7704700BF09
:1010400008B528F026FE40F2DC5028F027FD80206D
:1010500028F060FD4FF4807028F076FD41F27000BA
:1010600028F08BFD4FF4806028F03DFD41F2C63042
:1010700028F0A4FD4FF4966028F0B7FD28F003FD9A
:10108000BDE80840F0224FF4486140F6340029F0F2
:10109000CBB8000030B50446044D0FCD0FC495E821
:1010A0000F0084E80F00012030BD00BF6C1A002043
:1010B00010B58AB02822002168463BF08DFC6846B6
:1010C00028F07AFF28F08AFC194C607028F07CFC2C
:1010D000BDF9023020706361BDF80030DDE9020126
:1010E00007EE903AF8EE677AC4ED037AFFF776FDE3
:1010F0009DF81A30E0722376BDF81C306383BDF88A
:101100001E30A383BDF81030A372BDF812302374D3
:1011100028F0A1FC28F0DAFC28F066FC84ED010A36
:1011200028F092FC208128F0DCFC0AB010BD00BF42
:101130006C1A002038B5084C0A4623680BB9074BD7
:10114000236025682B6859683BF0AAFC686820601A
:10115000003818BF012038BD901A0020040000207C
:1011600038B50C46054610B91BF0CCFEFEE711B9A8
:101170001BF0C8FEFEE71BF0FBFD00236360044B81
:1011800025601A681C605460BDE838401BF0FEBD45
:101190000000002010B5044610B91BF0B3FEFEE7B6
:1011A00008201BF02DFF014610B91BF0ABFEFEE737
:1011B0002046FFF7D5FF012010BD00002DE9F84FB4
:1011C000304D90462A6806460F460023002A47D035
:1011D0004FF0010927E0D4F80090D9F800B0584644
:1011E000FFF760F859468246024630463BF046FC1F
:1011F00080BB16F80A2012F0DF022BD11346741EB2
:1012000014F8010FD9B2D8B90AB101394BB299F922
:101210001090DBB2B9F1000FDADBA3EB0902D2F1D7
:10122000000949EB02092C682CB32268B9F1000FC0
:1012300018D1D368984708B9C5F80090BDE8F88F71
:10124000202805D1002ADBD1013101224BB2D7E79A
:101250000022D5E764682C60002CBCD12346B7E798
:10126000094CF8E79468414632463846A0470028C2
:10127000E4D12860E2E74246384604493BF010FCDE
:101280002046DBE78C1A00200400002044000408FC
:10129000002330B513608B420DD00478054614F05E
:1012A000DF0F00F10100F8D12C782846202C05F141
:1012B0000105F9D00CB9002030BD01339942EAD1C3
:1012C000411E11F8014F136814F0DF0F02D1002BFB
:1012D000F2D1F0E701331360F3E7704708B537F058
:1012E00051F90021064A074819F022FA064B00215D
:1012F0001860064A064819F01BFA064B186008BD2C
:10130000EC000408A58F0308941A00202871050832
:101310001D140008587A02200020704708B50A46BC
:1013200000213BF059FB02483BF02CF9002008BD9E
:101330001001040810B5044C236803B910BD204601
:10134000FFF728FF1434F7E77C01040808B50146CD
:1013500004483BF017F9044B1B689868BDE8084047
:101360003BF028B854A40508F01900202DE9F041FD
:10137000064610480D4617464FF00008FFF7E6FFF7
:10138000C82229463046FFF719FF04462846FFF7D2
:10139000DDFF85F80080002CF2D1074B1868FFF7BD
:1013A000D5FF3C7021463046BDE8F04140223BF07D
:1013B00013BB00BF910004081000002007B503789C
:1013C00053B10022013BDBB203700748CA5403B09B
:1013D0005DF804EBFFF7BABF044B01A80193FFF7D8
:1013E000B5FF03B05DF804FB0C0000201B5B43005D
:1013F000094B93F900300D2B0CD0082B01D07F2B1B
:1014000001D1FFF7DBBF02783F2A9FBF8B540378DF
:1014100001330370704700BF981A00201FB50023E6
:101420008DF80B30FFF786FF114D124E124C002243
:101430004FF0FF3311461046009303AB1BF070F8DA
:10144000039B0B482B70FFF781FF95F900300D2BA4
:1014500001D00A2B06D1314620460DF10B02FFF7D1
:1014600085FFE4E721460DF10B00FFF7C1FFDEE742
:10147000981A0020D91A0020991A002010B59CB0A3
:101480001C2200210AA83BF0A7FA1822002102A87A
:101490003BF0A2FA234B1A6922F030021A611A6952
:1014A00002F030020192019A5A691207FCD52922F2
:1014B0004FF48033CDE908234FF080634FF4805020
:1014C000042203240E9302234FF0180CCDE91103DC
:1014D0004FF00C0ECDE91343CDE91723002308A8E4
:1014E000CDE915C2CDE919E31B9307F0BBF808B1AC
:1014F00072B6FEE71F23CDE90400CDE906002146C0
:1015000002A8CDE9023406F077FF08B172B6FEE713
:10151000054A136823F0300343F0100313601CB036
:1015200010BD00BF000802440020024080B58EB00C
:1015300003F0CEFCFFF7A2FF03F0C0FD4FF4806381
:1015400006A8ADF8183003F0F3FDB84B0125089359
:101550000C3309934FF4407307A80A93ADF81C505D
:1015600003F0C0FD062003F097FD1422002107A818
:101570003BF032FAAE4BAD21D3F88C20AD4842F0AF
:101580001002C3F88C20D3F88C20002402F0100243
:101590000192019AD3F88C20A74E42F00402C3F8BE
:1015A0008C20D3F88C20A54F02F004020292029AFC
:1015B000D3F88C204FF4807842F08002C3F88C205E
:1015C000D3F88C2002F080020392039AD3F88C2087
:1015D0002A43C3F88C20D3F88C202A400492049A22
:1015E000D3F88C2042F00202C3F88C20D3F88C2070
:1015F00002F002020592059AD3F88C2042F008020C
:10160000C3F88C20D3F88C30002203F00803069333
:10161000069B05F055FA00224FF45571884805F0F5
:101620004FFA002240F22361864805F049FA002271
:1016300048F28001844805F043FA002247F66971B8
:10164000824805F03DFA47F674737F4807A9CDE953
:101650000734099405F022F908237B4807A9CDE94E
:101660000736099405F01AF942F21203714807A9E6
:10167000CDE90734099405F011F9AD236D4807A9A8
:10168000CDE90735CDE9094405F008F94FF41573A4
:101690006B4807A9CDE90735CDE9094405F0FEF807
:1016A00048F20843664807A9CDE90734099405F0D4
:1016B000F5F840F22363634807A9CDE90735CDE982
:1016C000094405F0EBF848F280035F4807A9CDE92B
:1016D0000735CDE9094405F0E1F84FF48053594846
:1016E00007A9CDE90737099405F0D8F847F66973DB
:1016F000564807A9CDE90735CDE9094405F0CEF8EC
:1017000048F20203514807A9CDE90734099405F0CE
:10171000C5F84023474807A9CDE90736099405F0E5
:10172000BDF80223464807A90A93CDE90785099425
:1017300005F0B4F89023454807A9CDE90734099589
:1017400005F0ACF83F4807A9CDE90786099505F0F3
:10175000A5F83D4807A9CDE90757099405F09EF87B
:1017600022460521132003F0FBFB132003F028FC85
:10177000224605210E2003F0F3FB0E2003F020FC8F
:1017800022460521112003F0EBFB112003F018FC89
:10179000224605210B2003F0E3FB0B2003F010FC95
:1017A00003232B482B4E40F6FF77C0E900634FF42C
:1017B0007A630461C0E9023705F0C5FE034608B14B
:1017C00072B6FEE74FF480082348244A0724C0E994
:1017D00000284FF400324FF080674FF08046C0E998
:1017E00002244FF08052C0E90433C0E90672C0E918
:1017F0000833C0E90A34C0E90D63C0E91233C0E917
:101800001433C0E91633C36303660AF01BFF08B143
:1018100072B6FEE705F07CFE08B172B6FEE705F091
:1018200087FE0346E0B172B6FEE700BF00F8FF088E
:10183000000C0244000802420000211000001110B8
:10184000000002420004024200100242000C024268
:10185000701D002000300040341C0020003001408A
:101860004448454AC0E90234C0E900284FF080727C
:10187000C0E905274FF00052C0E90933C0E907234A
:10188000C0E90D33C0E91233C0E91433C0E916339F
:101890000361C462C36303660AF0D4FE08B172B682
:1018A000FEE7364C3649374BC4E90205C4E904006B
:1018B000C4E9060020622046C4E9001305F0A0FA3E
:1018C000014608B172B6FEE7204605F0D5FD014697
:1018D00008B172B6FEE7204605F0F4FD054608B1F2
:1018E00072B6FEE71C2201460DEB02003BF074F8D5
:1018F000254C264B7F22C4E90035FF232046C4E94E
:101900000223C4E90455C4E90656C4E9085509F0A0
:1019100063FF08B172B6FEE7CDE90A0007900C90AC
:1019200007A920460AF02EF808B172B6FEE7002398
:101930004FF6FF711A46144809F0A2FF08B172B6BB
:10194000FEE7134C134BC4E9050023600323A0807A
:101950002046236203F04EFC08B172B6FEE7204633
:1019600003F082FC18F092FEFFF7B8FC18F0B4FE0A
:10197000FEE700BFA41B002000380040841D0020AB
:101980000054004087277000401D0020007800446C
:10199000D81D0020003002400268094B10B59A4261
:1019A000044601D103F0B8FA064B9C4202D0064B24
:1019B0009C4204D12046BDE810402EF0F5B910BD80
:1019C000001000400C8202205882022072B6FEE70E
:1019D00007B5034600910320034A04492FF0A0F8FD
:1019E00003B05DF804FB00BFB8010408DC01040883
:1019F00008B500220F216FF0010003F0B1FA232097
:101A00000022052103F0ACFABDE80840232003F0D2
:101A1000D7BA00000268094B82B09A420CD1084B39
:101A2000D3F8882042F48052C3F88820D3F8883055
:101A300003F480530193019B02B0704700300240D1
:101A4000000C02440268054B9A4201BF044AD2F8D6
:101A5000883023F48053C2F8883070470030024049
:101A6000000C024410B50446CAB01422002103A899
:101A70003AF0B2FF4FF48472002108A83AF0ACFFAC
:101A800022681B4B9A4231D14FF40052002308A820
:101A9000CDE9082307F0C8F908B1FFF797FF154C07
:101AA000C022D4F88C30002143F00203C4F88C30FB
:101AB000D4F88C30104803F002030193019B1223E9
:101AC000CDE903230123CDE90513042303A90793DB
:101AD00004F0E4FED4F89C3043F40013C4F89C30C6
:101AE000D4F89C3003F400130293029B4AB010BD5B
:101AF00000540040000C02440004024210B50446A9
:101B0000C4B04FF48472002102A83AF065FF226845
:101B1000164B9A4228D100234FF00072CDE90223E0
:101B20004FF4007302A8409307F07EF908B1FFF765
:101B30004DFF0F4B0220D3F8F020052142F4004264
:101B4000C3F8F020D3F8A82042F40012C3F8A8206C
:101B5000D3F8A830002203F400130193019B03F093
:101B6000FFF9022003F02CFA44B010BD00780044C5
:101B7000000C024408B502680C4B9A4214D10C4A7E
:101B80004FF4F851D2F894300A4823F40063C2F8B5
:101B9000943004F027FF0848042104F023FFBDE837
:101BA00008404F2003F01ABA08BD00BF008000466D
:101BB000000C024400080242000C0242142210B53C
:101BC0000446CCB000210DEB02003AF005FF4FF4C3
:101BD000847200210AA83AF0FFFE2368344A934237
:101BE00032D14FF0006200230AA8CDE90A2307F0A2
:101BF0001BF908B1FFF7EAFE2E4BA021D3F8A42071
:101C00002D4842F48052C3F8A420D3F8A42002F453
:101C100080520192019AD3F88C2042F00102C3F85D
:101C20008C20D3F88C3003F001030293029B022333
:101C3000CDE905130023CDE90733052305A9099351
:101C400004F02CFE4CB010BD1C4A9342FAD14FF068
:101C5000805200230AA8CDE90A2307F0E5F808B16D
:101C6000FFF7B4FE134B1648D3F89C2005A942F4A5
:101C70008042C3F89C20D3F89C2002F48042039257
:101C8000039AD3F88C2042F00202C3F88C20D3F8D8
:101C90008C304FF4604203F002030493049B022350
:101CA000CDE905230023CDE9073305230993C7E7D1
:101CB00000300140000C02440000024200380040A5
:101CC0000004024203680E4A93420AD1A0210D4A41
:101CD0000D48D2F8A43023F48053C2F8A43004F0A5
:101CE00081BE0A4A93420AD1064A4FF46041D2F8B3
:101CF0009C30074823F48043C2F89C30EFE77047DC
:101D000000300140000C0244000002420038004054
:101D1000000402420368124A82B093420ED1114B72
:101D2000D3F8A42042F40062C3F8A420D3F8A4306E
:101D300003F400630093009B02B070470A4A934289
:101D4000FAD1084BD3F89C2042F00202C3F89C2041
:101D5000D3F89C3003F002030193019BECE700BF32
:101D6000002C0140000C0244000400400368164AA5
:101D700010B59342044607D1144AD2F8A43023F494
:101D80000063C2F8A43010BDB3F1804F10D10F4AE8
:101D90000F48D2F89C3048F2080123F00103C2F842
:101DA0009C3004F01FFE606ABDE8104003F096BC52
:101DB000084A934201BF054AD2F89C3023F002033F
:101DC000C2F89C30DFE700BF002C0140000C024449
:101DD0000000024200040040214B70B5D3F89C2063
:101DE00088B042F01002C3F89C20D3F89C3005461E
:101DF00003F010030193694602A8019B06F01CFF43
:101E0000059B3BBB06F0E2FE164E174B3360632387
:101E1000F360164BB0FBF3F3013B736000233046D5
:101E20003361B3600BF0B0FE044668B930460BF086
:101E30000FFC044640B90F2D10D802462946312028
:101E400003F08EF80A4B1D60312003F0B9F82046EC
:101E500008B070BD06F0BAFE4000D5E70124F3E7F4
:101E6000000C0244FC1D002000100040A086010070
:101E70001C000020014BD3F80831FEE7002002408F
:101E80000022034B1A601A68002AFCD0704700BF7A
:101E9000481E0020FEE7FEE7FEE77047014809F014
:101EA00053BD00BF401D0020014805F096BB00BF98
:101EB000701D002001480BF0C3BC00BFFC1D0020BA
:101EC00001480AF053BA00BFC41C0020014804F0C6
:101ED00075B900BF584102200120704708B53AF09B
:101EE0006BFF162303604FF0FF3008BD08B53AF0D2
:101EF00063FF16230360FEE770B50D4614460E46D9
:101F0000731B9C4201DC204670BDAFF3008006F8D5
:101F1000010BF5E74FF0FF3070474FF400530020FE
:101F20004B60704701207047002070470B4A034602
:101F3000116810B509B90A491160106809490A4CBD
:101F40000344091B8B4206D93AF036FF0C23036089
:101F50004FF0FF3010BD1360FCE700BF4C1E0020A7
:101F6000A0A4022000000A200004000001221D4954
:101F700010B5D1F888301C4843F47003C1F888309C
:101F80001A4B1A600022DA611A621C68204018603D
:101F900017489A62DA621A6358639A63D8631A64BC
:101FA00058649A64186820F4802018601A654FF00D
:101FB00000638B600F4B9A6902F04042B2F1404FD0
:101FC0000FD1DA69D20741BF0B4ADA6002F144321D
:101FD000DA60DA6942F00202DA61DA6942F001029B
:101FE000DA6110BD00ED00E0E3EAE2EA000C024431
:101FF00080020101002002403B2A19080D48854655
:10200000FFF7B4FF0C480D490D4A002302E0D458F5
:10201000C4500433C4188C42F9D30A4A0A4C002332
:1020200001E013600432A242FBD33AF0CBFEFFF78B
:102030007DFAFEE700000A2000000020501A002070
:1020400088C20508501A0020A0A40220FEE708B5A7
:1020500072B6FFF7BBFCFEE738B5057A0446012DE2
:1020600003D972B6FFF7B2FCFEE76B1C03721AF0DD
:1020700049FF44F8250038BD08B5037A013BDBB2BF
:10208000012B037203D972B6FFF7A0FCFEE750F8EC
:102090002300BDE808401AF040BF10B5044620B93F
:1020A0003AF08AFE1623036010BD0C2039F0E2F8E6
:1020B000206020B10023C0E900330372F4E7FFF78A
:1020C000C6FF08B508B9FFF7C2FFBDE80840FFF733
:1020D000C3BFFFF7F6BF08B518B972B6FFF776FCB5
:1020E000FEE7BDE80840FFF7C7BFFFF7F4BF0000F9
:1020F000E02110B5052002F0C7FD08210C2002F0F8
:10210000D7FD0022044BC3E91122DA645B6D13B1E1
:10211000BDE81040184710BD681E002038B5444C7B
:1021200063780A3B022B63D9C22002F05AFDD52006
:1021300002F057FD216979B16378092B5AD00D2B34
:102140000AD040F23B43994288BFA1F23C41C1F31F
:10215000CF00202102F074FB236D03B19847236B5D
:10216000C3F38002D8064FEA421248BF42F0400251
:10217000990648BF42F08002E021052002F0C4FD2C
:10218000236B80211A064FF00A0039D502F090FD2A
:10219000236B08211B074FF00C0034D502F074FDAF
:1021A000E3790221012B4FF012002FD102F080FDC4
:1021B000204D6378A3F10A02022A2BD845F00825A6
:1021C000606B431E033309D843F2F843B0FBF3F0CE
:1021D00000F57A7080B202F06DFEE064284602F0ED
:1021E0003BFE284602F042FEFF2384F83F3038BD14
:1021F000DB209DE7C1F3C721552002F05EFCABE771
:1022000002F042FDC4E702F053FDC9E702F03CFDD5
:10221000094DCEE703F0FB03092BD1D100220321A6
:1022200045F000450A2045F4F05502F06DFDC7E782
:10223000681E00207A40F0007840F000814203469A
:102240000CD9091A91FBF2F2024490B2834211D1E7
:1022500000F47F4000F5807080B27047A0EB010170
:1022600091FBF2F2A0EB020290B203D0834208BFCE
:1022700000F47F4070470000054991F83F30FF2B84
:1022800004D102221E203E3102F011BC704700BF73
:10229000681E002008B5FFF7EFFF044A92F83F30B0
:1022A00092F83E009B0940EA032008BD681E00200A
:1022B00038B5FFF7EFFF134C05466378012B1FD1AC
:1022C000638B1B2B01D0152B1AD1FFF7D5FF94F888
:1022D0003F3013F00E0F13D0012D11D12946606A43
:1022E00002F014FCE36A3BB1FFF7C6FF94F83F30FD
:1022F000E26AC3F342031380282363835A232376BD
:1023000038BD00BF681E002007B5094B1B786BB1B4
:10231000002280212C2002F010FD18B10DF10600E2
:1023200002F05AF9002003B05DF804FB2120FAE71F
:10233000681E002010B502F0ADFA044660BB02F042
:10234000A5FD4021012002F080FC20461AF028FF64
:1023500003220220114602F0D7FCFF2201210F4B7D
:10236000C3E90144C3E90344C3E91144C3E9144484
:1023700083F83F2019801C831C751C64DC649C65F9
:10238000A3F8404483F85C4083F86C2083F87D40D8
:1023900083F88040FFF7B8FF204610BD681E00207C
:1023A0001FB57F4C2378FBB1FF28637808BFA07866
:1023B000FF2908BFE178073B012BA070E17016D818
:1023C00063780D2B00F2E880DFE813F00E001600B2
:1023D000160030003000300048005B005B009A00BF
:1023E000C0000E00D300AD00212004B010BD02F0EB
:1023F00057F90028E4D0F8E708201AF0D1FE40F29F
:102400000110A378EA2B98BF01331B01DBB21843FC
:102410001AF0C6FEE078EA2898BF01300001C0B289
:1024200040F481701AF0BCFE0020DEE708201AF0AC
:10243000B7FE40F20120A378EA2B98BF01331B01BD
:10244000DBB218431AF0ACFE40F20220E378EA2B2C
:1024500098BF01331B01DBB21843E3E708201AF0F1
:102460009FFE40F20140A378EA2B98BF01331B0185
:10247000DBB218431AF094FEE37840F20240EA2BF4
:10248000E6E7E37803F11502D2B2012A00F2868072
:10249000A27802F11401C9B201297FD8A2F1ED019D
:1024A0004A42A3F1EB004A4143424341694602A834
:1024B0008DF8082003931AF035FF009B01A85A7885
:1024C0008DF805209A788DF80620DA788DF80720A7
:1024D0001B788DF8043002F021FA08201AF060FE13
:1024E00041F20100A378EA2B98BF01331B01DBB254
:1024F00018431AF055FEE37841F20200EA2BA7E7F1
:1025000008201AF04DFE40F60100A378EA2B98BF90
:1025100001331B01DBB218431AF042FEE37840F6A8
:102520000200EA2B94E709201AF03AFE48F601006F
:10253000A378EA2B98BF01331B01DBB218431AF0D2
:102540002FFEE37848F60200EA2B81E709201AF013
:1025500027FE48F20110A378EA2B98BF01331B0134
:10256000DBB218431AF01CFEE37848F20210EA2BA3
:102570006EE709201AF014FE48F20140A378EA2B16
:1025800098BF01331B01DBB218431AF009FEE37850
:1025900048F20240EA2B5BE70F2026E7072024E7FA
:1025A000681E0020F8B5744F06463B780C46154669
:1025B000002B00F0DA80FF2900F0D980FF2A00F01C
:1025C000D680431E0C2B00F2D480DFE803F00925EF
:1025D0002B44536271717CB007BF94001820F8BD82
:1025E0000421022002F050FB0821032002F065FACA
:1025F00040F201101AF0D4FD4FF481701AF0D0FDB2
:102600003B787E70022B38BF02233B702946204660
:10261000BDE8F840FFF7C4BE0421022002F034FBFD
:102620002021E2E70421022002F02EFB10210320EA
:1026300002F043FA0022FC21062002F065FB002292
:10264000F021072002F060FB40F201201AF0A8FD03
:1026500040F20220D2E70421022002F015FB1021F3
:10266000032002F02AFA0022FC21062002F04CFB93
:102670002022E5E70421022002F006FB10210320BE
:1026800002F01BFA0022FC21062002F03DFB302262
:10269000D6E70421022002F0F7FA1821032002F005
:1026A0000CFA40F201401AF07BFD40F20240A5E72F
:1026B0000421022002F0E8FA41F201001AF070FD54
:1026C00041F202009AE70221032002F0F6F900220B
:1026D0000421122002F018FB6021A92002F0B0F8BA
:1026E0008021152002F0E9F940F601001AF058FDAA
:1026F00040F6020082E7BA21032002F0DEF9002151
:10270000552002F0DAF900220421122002F0FCFA2E
:102710006021A92002F094F88021152002F0CDF963
:1027200048F601001AF03CFD48F6020066E7042175
:10273000022002F0A9FA8821032002F0BEF948F233
:1027400001101AF02DFD48F2021057E70421022073
:1027500002F09AFAA021032002F0AFF948F20140FA
:102760001AF01EFD48F2024048E7212037E7072013
:1027700035E70F2033E700BF681E0020074B1A78AB
:102780004AB15A783AB108B19A78027009B1DB7847
:102790000B70002070472120704700BF681E00208A
:1027A00010B5044620B1012807D0074BDC7110BDDD
:1027B0008021452002F068FAF7E784228F21452026
:1027C00002F08BFAF1E700BF681E0020034B044AB9
:1027D000904294BF18611A61704700BF681E0020C4
:1027E000F8FF0700014B1869704700BF681E002002
:1027F000B0F57F5F28BF4FF47F50014BD860704722
:10280000681E0020034B044A904294BF98609A606F
:10281000704700BF681E00208074D904034B186CF9
:1028200008B102F04DBB0120704700BF681E0020B8
:10283000802238B51146022002F07FFA00284AD0E3
:10284000264C2378002B46D002201AF0A9FC08223F
:102850000220114602F071FA08B12379CBBB0021A6
:10286000552002F02AF901220321022002F04CFA3D
:10287000FF22237D114603F00303C82001F038FF37
:10288000032205461146022002F03EFA0722237D6C
:1028900002200133B3FBF2F2C2EBC2029B1A082200
:1028A0001146237502F049FA207118B1482102201F
:1028B00002F0FEF9A26852B143F2F8439A4238BFDF
:1028C0001A46B2FBF3F080B202F0F4FA2064284614
:1028D00038BD0025EEE72125F9E700BF681E00207E
:1028E00010B5074C237E0BB1FFF702FC48210220F4
:1028F00002F0CAF903201AF053FC0020207110BD29
:10290000681E0020F8B5054608B90720F8BD4369E0
:1029100003F09003102B00F0BB80614C2378012B57
:1029200001D82120F2E708220220114602F005FA20
:1029300030B963780A3B022B02D92B68002BF0D107
:102940000FCD584E0FC6E36895E8070086E80700EC
:1029500063B363785A1E012A40F28980032B00F08A
:102960008980072B0CBF802540250821122002F00A
:102970008BF96378032B0FD1002204210A2002F087
:10298000DCF948B108214C2002F092F914221F21F1
:102990004620803502F0B8F9E1680F20A9422ABF2D
:1029A000491B0421C1F3871102F087F8606B431EB5
:1029B000033364D8E3689842A7D96378012B69D0C0
:1029C000022B67D0032B68D0062B01D0092B54D1E2
:1029D000A378012B14BF4FF400734FF4806340338E
:1029E0001844314B984228BF18466063800901F0B3
:1029F000F1FE032323700B23237602236383637882
:102A0000E769073B012B3CD8284DA5F581660FCE21
:102A10000FC596E80700D4F82C3485E80700002B92
:102A2000A5F5077518BF2B4663624FF482532385C3
:102A3000D4F8383403F0080343F0330323632FBB87
:102A4000FFF76CFB637803F0FB03092B06D1082129
:102A5000022002F019F9E42002F0C3F8D12002F0BC
:102A6000C0F8E32002F0BDF8512323760EE04FF4C6
:102A70008A757AE74FF4CA7577E74023B0E70020FC
:102A8000B5E7002FDCD0238C002BD9D000203DE708
:102A900018203BE74FF42073A2E74FF434639FE71D
:102AA000681E0020841E002000F0FF0F8C220020F2
:102AB000034B187E0B3845288CBF0020012070473F
:102AC000681E0020034B1A7E0AB9588B70470220FB
:102AD000704700BF681E002037B5FFF7F3FF0228DC
:102AE000044651D02A4DD5F8B8301878E0B1D5F861
:102AF000B430D5F8B0101A788B5C03418B54D5F8FC
:102B0000B430D5F8B0101A78D5F8B8008B5C0078DE
:102B100083408B54D5F8B430D5F8B0101A7895F8B6
:102B2000AC008B5C03438B541D2C11D120200DF184
:102B3000070101F0B6FF9DF80730D5F8B4201B0956
:102B400013709DF80730D5F8B820C3F34203137013
:102B5000042002F097F90121052002F095F840F2D7
:102B60000110AB78EA2B98BF01331B01DBB218438D
:102B70001AF016FBEB78EA2B98BF01331B01DBB28E
:102B800043F481701AF00CFB204603B030BD00BF47
:102B9000681E002038B540F20363314C22889A4207
:102BA0005BD1FFF78FFF0228054622D0042829D0E9
:102BB000D12002F016F8D52002F013F8FF2384F894
:102BC0003F30CDB9142294F8C9300133DBB284F818
:102BD000C93002FB0343D53363620222242011462D
:102BE00002F0ABF870B102236383032323705123F7
:102BF00023760225284638BD94F8CA30013384F87C
:102C0000CA30EAE794F8D430D4F8C400E37170B164
:102C100094F8C8205AB194F8C93043B19A4228BFF9
:102C20001A4602EB82020F4992003AF0F7F8D4F804
:102C3000CC3013B194F8C9201A70D4F8D03013B145
:102C400094F8CA201A70D4F8C83023F07F4323F0D8
:102C5000FF03002B18BF0025CCE72125CAE700BFE2
:102C6000681E00203D1F002040223120114602F046
:102C700064B8000008B5124B1A78FAB1002283F844
:102C80005C209B791BB14021012001F0DEFF01F0A7
:102C90003DFCFFF725FE0D21082002F009F8082170
:102CA000032001F00AFF074802F0ECF8064802F0A2
:102CB000D3F807201AF074FA002008BD2120FCE7A1
:102CC000681E00208000001F0800001F2DE9F04151
:102CD000264C1E462378054688461746002B3ED0D4
:102CE0000D283ED0102823D00C283CD101210820EB
:102CF00001F0CAFFCE2001F074FFC822FB2103209F
:102D000002F002F82021052001F0BEFFD12001F0E1
:102D100068FFA06E40F4700040F4C95002F0A9F8BA
:102D2000FFF7A2FF68B9FFF7A5FF2520BDE8F081F6
:102D30000521082001F0A8FFCE2001F052FFE82273
:102D4000DCE70020042384F85C502370C4F8708012
:102D5000A4F87470A667308084F87C00E6E7212030
:102D6000E4E70F20E2E70720E0E700BF681E00204D
:102D7000054B11B193F86C200A7010B193F87C20C8
:102D8000027093F85C007047681E002070B58D4D8E
:102D900006462B7813B92124204670BD002385F800
:102DA0007C30731E0F2BF6D801A252F823F000BF1F
:102DB000F12D00087F2E0008752F0008972D0008C0
:102DC000252F00089B2F0008B12F0008B12F000805
:102DD000652F0008B12F0008B52F0008BF2F00088D
:102DE000BF2F0008752F00089B2F0008BF2F000879
:102DF0004021022001F05CFFC22001F0F2FE2B6EA8
:102E0000580506D50121082001F03EFFCD2001F034
:102E1000E8FE2B6ED90403D50421082001F034FF0D
:102E20002B6E9A0408D503210122084601F06CFF9D
:102E30000821022001F028FF2021052001F024FFB5
:102E40004FF0FF3002F01EF8A86E40F4700040F41E
:102E5000CD5002F00EF8FF23FB2195F864200320EB
:102E600085F86C3001F050FFFFF7FEFE044630B9E4
:102E7000C821022001F008FF85F85C608CE7802201
:102E80000220114601F059FF88B9C021022001F04B
:102E90000FFF10223120114601F04FFF50B90A21D7
:102EA000802001F0BDFF28B902260324E4E780203A
:102EB00001F0D2FF2B6E9B0418D40024022695F853
:102EC0005C30062B06D10121082001F0DDFECD206B
:102ED00001F087FEDB2001F084FED12001F081FEAD
:102EE000A979C9B9002C7FF45CAFC5E7C22001F015
:102EF00078FE03210122084601F006FF0821022086
:102F000001F0C2FE40223120114601F016FF0028D8
:102F1000D3D101242646D2E741F04001012001F03F
:102F200094FEDFE795F86C10084601F0B9FB01212B
:102F3000082001F0BDFE95F86C200C201146FFF72B
:102F400031FB04230446DB202B7001F04AFED12024
:102F500001F047FE4FF4700001F07EFF102001F0F9
:102F600085FF89E795F86C200C201146FFF71AFBC6
:102F7000044681E795F86C10084601F091FB0421A6
:102F8000082001F095FE95F86C200A201146FFF705
:102F900009FB042304462B706EE70121082001F091
:102FA00087FE4FF4700001F057FF102001F05EFF24
:102FB000002461E70421082001F07AFEF8E70524E7
:102FC000EAE600BF681E00202DE9F047704C1F465E
:102FD000237886B006460D469246DDF84090002BD9
:102FE00000F0D28000224305C4E9192284F85C2055
:102FF00040D521B10B78042B06D0072B03D0072036
:1030000006B0BDE8F087102230210A2001F07CFED6
:103010006B464FF00C08D5F80100D5F80510B5F84F
:10302000092003C31A80B5F80B300F21ADF80A3020
:103030002B786846042B6B7B0CBF03F0FB0243F03C
:10304000040203F0FB038DF80D308DF80E308DF87F
:103050000C2001F072FD636E43F0C8036366A36E3B
:1030600043F09853A366350507D5BAF1000FC6D0D3
:103070001820C5E74FF00D08F5E7F00433D5002F11
:10308000BDD03B4633F8022B1237ADF800200DF1CE
:10309000020253F8041BBB4242F8041BF9D11B780F
:1030A00015211370002368468DF813308DF8143005
:1030B00001F05FFD94F87D304BB93649364B6846D8
:1030C000CDE90013354B0C21029301F06EFD636EC8
:1030D00008F0FB0843F0E0036366A36E43F0C053BF
:1030E00043F01003A366B2041BD5636E802143F046
:1030F000E9030A20636601F0C7FD227D03210A204F
:1031000001F002FE0722237D08F0F7080133B3FB2C
:10311000F2F2C2EBC2029B1A2375A36E43F01003B6
:10312000A366636E1B0631D5042323700E9B002516
:103130002367BDF83C304246A4F874304FF48073E6
:103140000D212666C4F878900820A9F80050A4F84C
:103150007C3001F0D9FD2A46E021122001F0D4FD97
:103160000821122001F0A4FD02210F2001F0A5FC8E
:10317000E021052001F088FD06201AF011F8012059
:10318000FFF704FE28463BE7212039E7052037E713
:10319000681E0020123456789ABCDF21436587A947
:1031A000F0B5A04C8BB02578042D00F04683052D9A
:1031B00000F03485032D6DD1E06C28B101F080FE64
:1031C00010B15A2365832376FFF772FC237E002813
:1031D00000F03F8100220792627E9A4218BF637618
:1031E0000B3B092B00F23381DFE813F00A000C00DF
:1031F00014001B0082009700A600F60003012201C4
:103200000C232376FFF70AFB002843D00023236416
:103210000D232376637803F0FB03092B33D10E23B0
:103220002376FEF77BFF4FF49C7366782387F31FAA
:10323000012B208C4CD80023C11D4FF40070D4F812
:103240003824A4F8203482F04003D243764D049011
:1032500005F5EE70039005F579700290A6F108006F
:10326000464246410595023D01950096E069C3F34B
:10327000801302F00102C9081AF06CF860B10D2841
:103280000AD0608321E004222420114601F055FD7C
:103290000028C4D00BB0F0BD608FC00080B201F038
:1032A00077FAA18F614801F014FC617921B1012006
:1032B00041F0400101F0C9FC63780A3B022B15D8AC
:1032C000FFF7D2FC90B92523638314232376E1E72B
:1032D000C31DDB08638701F05BFA618FE069B1F51C
:1032E000007F28BF4FF40071A187DCE70F2323760E
:1032F000A36D23B9236BDA0705D4C42004E09847F3
:103300000028F7D1C6E7C52001F06BFCA38F628FC0
:1033100093422CBF12231023D8E7482001F09CFDD4
:103320000790079B002BB5D0079B5B0670D5079BCA
:103330001F076DD4112323766778638FA28FF91F3F
:103340000129258FE069A3EB02033DD89D42C8BF48
:103350009DB20023B5F5027F28BF4FF40275D4F863
:103360003824ADF8243082F04003D243218C0495F8
:103370002E4D09AE059605F502760296A7F10806D0
:103380007742774107310395A5F5EF7501950097D1
:10339000C3F3801302F00102C90819F0DBFF10B17A
:1033A0000D287FF46EAFBDF82410204801F091FB8A
:1033B000A38FBDF824201344628F9BB2A3879A4247
:1033C00094BF1223102381E79D42A8BF1D46A9B2D6
:1033D000ADF824101044E9E7482001F03DFD0790C6
:1033E000079B002B3FF456AF079B1D070CD51323FB
:1033F0002376636AA1796BB9002900F09F8140218F
:10340000012001F022FC99E1079B58063FF542AFED
:10341000032359E721B1012041F0400101F015FCDF
:10342000512353E7681E0020A41E002080200020A6
:10343000638B022B04BF08236383A3791BB1402154
:10344000012001F002FCFEF753FE00233EE70823B3
:103450003AE7502B7FF61EAF627E08909A4218BF63
:103460006376513B092B00F2E681DFE813F00A0096
:10347000AE011C004C0073018E00CA00CC01630138
:10348000A0010023E26AA387638702B113800A20A8
:1034900001F010FD6378A06403F0FB03092B0CBF5F
:1034A0005223532312E744F6200001F0D5FC089084
:1034B000089B002B3FF4EEAE089B590406D5089BF1
:1034C0009A0603D4042363835A23FFE6089B1B0553
:1034D0000AD5089B9F0607D4637803F0FB03092BEA
:1034E0000CBF04232523EEE7089B9E061BD5322044
:1034F00001F0E0FC54232376089B606423F48043AE
:1035000023F020030893904801F0A6FC089B184381
:103510000890089B4BB9606C01F0D2FC00283FF486
:10352000B9AE0923CFE70323CDE7089B9D0719D543
:103530004FF4804001F090FC02460028C2D10221E5
:10354000242001F0FAFB0028BCD1202001F084FCEB
:1035500004223120114601F0F0FB08B15423B5E6F6
:103560005323B3E6089B580604D5089BD90601D41B
:103570005523ABE6089B1A01F2D4744801F06CFCA9
:10358000089B1843562308902376089BDB0208D536
:1035900009236383572323760BB0BDE8F040FEF781
:1035A00087BE6378A3F10902042A04D9089A970216
:1035B00001D5052BECD1089A560201D51B23E8E76B
:1035C000089A150201D51523E3E7089A500701D59B
:1035D0001D23DEE70A3B022B04D8089B190501D501
:1035E000252370E7089BDA069DD5FEF745FE94F883
:1035F0003F3013F00E0F00F0898028236383572398
:103600002376FEF747FE236B01469F0708D4638F9E
:10361000C21892B222B1022840F28180811E89B282
:10362000638F228D0B449BB20732B3EBD20FA08F76
:1036300063874FEAD20507D9638B2D1A022B08BF87
:103640000123A9B208BF6383636A184401F05EFADC
:10365000E26AAAB1638FDB001380FEF70DFE94F8D7
:103660003F3013F00E0F0BD0FEF706FEE16A94F820
:103670003F300A88C3F34203C3F10803D31A0B8017
:103680006278D31F012B3AD8638B022B37D10023EA
:10369000A2F1080672427241ADF82430B4F8303419
:1036A0000392B4F8402407330292D4F83424DB08A0
:1036B000019209AA0092D4F82C24618F606A19F053
:1036C00021FF074608B115280CD1D4F838349D07DE
:1036D00008D4D4F834241388580703D10F2B84BF9F
:1036E000103B1380002F08BF0227194D678305F593
:1036F00081660FCE0FC596E8070085E8070063785E
:1037000003F0FB03092B0FD15823DFE5FEF7B4FDCF
:1037100094F83F30DB077FF572AF09236EE7022B89
:1037200084BF023B63877BE7638B022B7FF4CCAEC5
:1037300059232376A379002B7FF461AEFEF7D8FCE2
:1037400000236383C2E500BF520800080400F000B4
:10375000841E0020322001F0ADFB6064FEF79AFD6C
:10376000638F228D03449BB20732B3EBD20F4FEA33
:10377000D20598BF05460646638788BFA38F606A57
:1037800088BFED1AA38F88BFADB21844294601F057
:10379000BDF9A38FAE422B44A38704D9711B00202F
:1037A00089B201F0B3F9FF2384F83F30D6E6A3795C
:1037B0001BB14021012001F048FAFEF799FC638B10
:1037C000022B04BF082363833FE69C4801F044FBBF
:1037D0000890089B33B9A06C01F072FB00287FF4BD
:1037E000FFAE57E5089BD90444BF53232376089BBB
:1037F0005A0441BF042363835A232376089B002B7A
:10380000BFF648ADECE64FF4C06001F025FB089030
:10381000089B002B3FF43EAD089B9B0505D5638BB1
:10382000022B0CBF59235A2350E5089B5F057FF5F7
:103830007AAE1D2347E6082345E694F85C30013B49
:103840000F2B3FF627AD01A252F823F08D38000868
:10385000AD380008893A000895320008F3390008AD
:10386000AD3A0008953200089532000895320008FC
:1038700095320008953200085B3B00085B3B00086E
:10388000EB3B0008AD3A00085B3B00084FF480506A
:1038900001F0E2FA0990099B002B3FF4FBAC099B75
:1038A000DE047FF5F7AC0220FFF770FA644801F000
:1038B000D3FA0990099B002B3FF4ECAC099BDD0582
:1038C0000DD5242008A901F0ECF89DF820301B0943
:1038D000022B28BF02238DF8203084F86C30099B1E
:1038E000180508D594F87C302BB901200BB0BDE841
:1038F000F040FFF74BBA099B190105D594F86C30DD
:10390000FF2B01D00520F1E7099BDA0657D594F883
:103910006C30FF2B53D04B4801F09EFA0990099B65
:103920001B0205D4099B5F0202D4099BDE020CD561
:10393000DB2001F056F9D12001F053F908210220D3
:103940000BB0BDE8F04001F09FB9236E9D0403D594
:10395000BA21032001F0B1F8A56F00F025FF2880FF
:10396000A26FB4F8743011880733DB08994228BF7E
:103970001946206F01F0CAF8A36F1A88022A09D9E4
:1039800094F86C3033B946F26330216F19F070FC53
:103990000028CDD10120A26F1388022B94BFDB1A1F
:1039A000023BDB001380A37984F87C00002B3FF4FA
:1039B00071AC40210BB0BDE8F04001F046B9099B65
:1039C000D8007FF567AC94F86C30002B7FF462ACC4
:1039D000236E59057FF55EAC212008A901F061F83E
:1039E0009DF82030012B7FF655AC0320FFF7CEF970
:1039F00050E4154801F030FA0990099B002B3FF480
:103A000049AC099B1A053FF570AF099BDB0639D518
:103A10004FF4300001F020FA099B18430990099BEC
:103A20001F0202D4099BDE0210D5DB2001F0D9F879
:103A3000D1200BB0BDE8F04001F0D3B800500080B9
:103A4000100900181008F00810080008A56F00F011
:103A5000ABFE2880A26FB4F8743011880733DB08FE
:103A6000994228BF1946206F01F050F8A26F1388C1
:103A7000022B94BFDB1A023BDB001380012384F886
:103A80007C3007E4099B05E4614801F0E5F9099001
:103A9000099B002B3FF4FEAB099B1D053FF525AFAD
:103AA000099BDC017FF5F6AB06201FE74FF40160B0
:103AB00001F0D2F90990099B002B3FF4EBAB099B75
:103AC00018053FF512AF099BD9067FF5E3AB4FF41C
:103AD000700001F0C1F9099BA56F1843099000F02F
:103AE00063FE099B28801A0209D4099BDB0206D4D5
:103AF000099B5F0203D4A26F1388022B1DD80022FA
:103B0000A36FDB201A8001F06CF8D12001F069F876
:103B100094F85C300F2B0CD10C20A36FB4F87420F8
:103B2000216FFFF7D3F810200BB0BDE8F04001F093
:103B3000A9B90220FFF72AF9F5E7023B9BB21380EF
:103B4000B4F87410206F0731C908994228BF19468C
:103B500000F0DCFFA26F13888EE72E4801F07CF99D
:103B60000990099B002B3FF495AB099BDE050DD511
:103B7000242008A900F095FF9DF820301B09022B96
:103B800028BF02238DF8203084F86C30099B1D0576
:103B90003FF5ABAE099B180104D594F86C30FF2BB0
:103BA0007FF4B0AE099BD90607D594F86C30FF2B93
:103BB00003D00022A36F1A8037E7099BDA007FF554
:103BC00069AB94F86C30002B7FF464AB236E5B051B
:103BD0007FF560AB212008A900F063FF9DF820303D
:103BE000092B7FF657AB0E2000E70B4801F034F9A4
:103BF0000990099B002B3FF44DAB099B1F053FF536
:103C000074AE099B9E017FF545AB0F206EE600BFA9
:103C100000080001100900180008000294F8803024
:103C2000023B012B3FF636AB4FF4702001F014F944
:103C300000283FF42FAB450341BF012384F8A43093
:103C4000032384F88030810341BF012384F8A63028
:103C5000032384F88030C20341BF012384F8A830D5
:103C6000032384F8803003037FF514AB012094F81C
:103C7000843084F8A200002B3FF40CAB20221146C4
:103C800001F05BF8024600287DD0802284210220CA
:103C900001F03AF8052034F0E5FF94F886509DB322
:103CA00009A800F0D0FC94F8883094F8872003F03D
:103CB00003039B019DF8241043EA0223B4F88A20F1
:103CC00084F8A31009020AB9A4F88A10B4F88A008B
:103CD000C218914202DAC31A99425BDC012384F8CC
:103CE000A430032384F8803094F88C3063B194F8C6
:103CF0008D3003B945B9042294F88E309A40D2B27F
:103D0000FEF79CFAA4F88A0094F89060A6B309A87C
:103D100000F09FFC94F8923094F8912003F0030394
:103D20009B019DF8241043EA0223B4F8942084F800
:103D3000A51009020AB9A4F89410B4F89400C218A6
:103D4000914202DAC31A994206DC012384F8A630B4
:103D50000323354684F8803094F8963063B194F8A4
:103D6000973003B945B9042294F898309A40D2B2FA
:103D7000FEF764FAA4F8940004228421022000F0E3
:103D8000C3FFFFF787BA0421022000F0BDFF00F057
:103D9000BDFB82E70025A7E708B5FFF701FAFEF7AC
:103DA00091FE0246FEF784FE08B1022AF5D0034BCD
:103DB0001B7E512B34BF1046002008BD681E00201A
:103DC00000B5DB0089B0ADF810300A9B0190059377
:103DD0000B9BC90006930C9B01A8ADF80810039239
:103DE0000793FEF78FFD20B909B05DF804EBFFF7EC
:103DF000D3BF09B05DF804FB70B51E4C1E46237896
:103E000086B0012B34D96378062B31D10B0A8DF89B
:103E10001130E379002584F8D43001238DF81400A3
:103E20000330E371800304F1C00384F8CA5084F8BE
:103E3000C9508DF81210CDE901508DF81320009370
:103E40000521142304F1D50204A88DF81050FFF7C2
:103E5000B7FF58B99DF82830C4F8C46084F8C8305A
:103E60000B9BC4F8CC300C9BC4F8D03006B070BDAE
:103E70002120FBE7681E00202DE9F047344D9846CD
:103E80002B7888B0012B04460E461746DDF840908B
:103E900058D995F801A0BAF1010F53D1002855D097
:103EA000002953D0002A51D0B8F1000F4ED040F273
:103EB000031019F075F95146052000F0F9FE33782A
:103EC0003A780A2002EBC302ADF80820234404220A
:103ED000039328231146ADF81030CDF81C900194BF
:103EE000CDF8148000F029FFC00040F08300069058
:103EF00001A8FEF707FD814628BB042000F0ACFFB7
:103F0000042000F0B3FF85F8AC903B788BB131789A
:103F1000C3F10803625C02FA03F3635431783A7820
:103F2000635CC2F10802134163543378E35C85F8A3
:103F3000AC30C5E92C46C5E92E7808B0BDE8F0479D
:103F4000FFF72ABF212008B0BDE8F0870720FAE775
:103F5000681E002010B5054CFFF722F9FEF7B2FDF0
:103F6000227E502AF8D80228F6D010BD681E002004
:103F700030B585B00A9D089C0295099DCDE90045A4
:103F8000FFF71EFF30B9FFF7E5FF1CB123880733A9
:103F9000DB08238005B030BD2DE9F84391460822A7
:103FA00006468846022011461F46089D00F0C5FEC1
:103FB000002800F093804B4C2378012B40F28E8038
:103FC0006378013B012B00F28980B8F1000F00F00B
:103FD0008780002F00F084806B1C00F08180262EEB
:103FE00078D0522E7CD1C726FEF718FC0028FBD0D3
:103FF00004222420114600F0A0FE0028F8D18323DB
:104000002363394B206405F52070984228BF184679
:104010008009C4F82480A4F82890E762656300F062
:10402000D9FBE3687BB10821122000F02DFEE16886
:104030000F20B1F58A7F2ABFA1F58A710421C1F34F
:10404000871100F03AFD206950B140F23B4398429D
:1040500088BFA0F23C402021C0F3CF0000F0F0FB6D
:10406000FEF75CF8042000F0F7FE042000F0FEFEEE
:10407000617921B1012041F0400100F0E6FD00210D
:10408000232000F01AFD304600F0ABFD46F6EF139A
:104090009D4285BF43F2F843B5FBF3F1012189B29C
:1040A000082000F0BDFEB8B1A17921B1012041F096
:1040B000400100F0CAFD032323705123237602231D
:1040C0006383FFF747FF0446042000F0DBFE204631
:1040D000BDE8F883C62687E70324F5E72124F6E741
:1040E0000724F4E7681E002000F0FF0F2DE9F043DD
:1040F000334D1E462B7889B0012B81460C469046E5
:10410000109F5AD96B78072B57D141F2030019F051
:1041100047F81023002CA5F840340BBF0B220A22CD
:1041200040230023134306934FF4A253E400F60008
:1041300001A8ADF80840CDF80490CDF80C80ADF89A
:10414000106005970793FEF7DDFB044688BBFFF779
:1041500023FE044610B9FFF7FDFE044624F00803D1
:104160009BB2152B01D0092C0AD13B8807335F2B5A
:104170004FEAD30004D8C0F10C00800834F072FD7F
:1041800041F20100AB78EA2B98BF01331B01DBB28F
:10419000184319F005F841F20200EB78EA2B98BFBA
:1041A00001331B01DBB2184318F0FAFF0023A5F816
:1041B0004034204609B0BDE8F0832124F9E700BF70
:1041C000681E00201FB50B460092002102460DF12B
:1041D0000F00FFF78BFF05B05DF804FB73B5A24C31
:1041E0002378002B00F03E8180BB1123A4F882309D
:1041F00040F201232022A4F88630FF2384F88400B3
:1042000084F8900084F89A0084F8880084F88C0080
:1042100011460120A4F88A3000F08FFD58B1012327
:10422000022284F8843084F8873084F8882084F867
:104230008C3084F88E2094F89A2094F8863082B9D5
:10424000CBB994F89030B3B9072067E004F182034A
:1042500000F1200250F8041B904243F8041BF9D1EE
:10426000E9E7002BF0D194F89030002BECD194F8D2
:104270008430002BE8D1B4F89420B4F88A3013438A
:10428000B4F89C2013439BB2FF2BDDD848210220B9
:1042900000F0FAFC0321022000F0F6FC0822F821CD
:1042A000032000F031FD042018F07AFF94F88230EA
:1042B0000F2B4FEA03158CBF00230123EDB245EA13
:1042C000C31594F8833013B994F8846056B394F806
:1042D000843045F008051BB300234FF40026A4F8F2
:1042E0008A30A4F89430A4F89C304FF0FF3000F0EE
:1042F000C9FD304600F0B0FD304600F0B7FD29465C
:10430000322000F0DAFB0422CF21022000F0FCFC76
:10431000022384F8803005230020237002B070BD92
:104320004FF4002694F886306BB394F8873094F8F5
:104330008C10332041EA031194F88D3041EAC30117
:1043400094F88E305B0003F006031943C9B28DF870
:10435000071000F0B2FB94F88C3083B9B4F88A30BF
:10436000FF2B07D10DF1070000F06DF99DF8073024
:10437000A4F88A30342094F88A1000F09EFB45F0AF
:10438000040546F4802694F890306BB394F891308D
:1043900094F89610372041EA031194F8973041EAD7
:1043A000C30194F898305B0003F006031943C9B2C7
:1043B0008DF8071000F081FB94F8963083B9B4F8BB
:1043C0009430FF2B07D10DF1070000F042F99DF862
:1043D0000730A4F89430382094F8941000F06DFB66
:1043E00045F0020546F4003694F89A30002B3FF46D
:1043F0007CAF8821022000F047FC002000F035F956
:1044000094F89B3094F89E103B2041EA031194F8F5
:104410009F3041EAC30194F8A0305B0003F006032B
:104420001943C9B28DF8071000F047FB94F89E308D
:1044300013B194F8843083B1B4F89C30FF2B07D1CA
:104440000DF1070000F00BF99DF80730A4F89C303F
:104450003C2094F89C1000F030FB45F0010546F438
:10446000803642E7212059E7681E0020034B93F86D
:104470008000022894BF002001207047681E0020A1
:1044800038B5104B1D78052D19D1002404210220C8
:1044900083F8804000F0F8FB4FF4702000F0F2FC4D
:1044A000C22000F09EFB03220220114600F02CFCEB
:1044B00000F02CF8284618F073FE204638BD212065
:1044C000FCE700BF681E002070B5C4B220460D4650
:1044D000164600F045FC30B1324629462046BDE87C
:1044E000704000F011BC072070BD08B5C0B200F0EC
:1044F0000EFC002008BD08B54FF0FF3000F0C2FCF4
:10450000BDE808404821022000F0BEBB802208B56B
:104510001146022000F011FC80B9802000F0A9FCB7
:10452000802000F099FC8021022000F0C1FB0A21CC
:10453000802000F075FC802000F0A4FC10223120C7
:10454000114600F0FAFB80F00100C0B2C00008BDC7
:10455000F8B5074616461C464FF400400D4600F0DD
:104560007BFC4FF4004000F081FC384600F039FB42
:1045700031464FF4004000F053FC4FF4004000F08F
:1045800081FC1CB12146284600F08BFA0020F8BDC2
:1045900007B5024607212C2000F0B6FB6422252136
:1045A0000DF10703DF20FFF7D3FF9DF8070003B0ED
:1045B0005DF804FB08B5FFF7EBFF0521042212FBB1
:1045C00000120A21B2FBF1F200EB4003C0EBC3037F
:1045D00012FA83F080B208BD13B5044680212C2066
:1045E00000F066FB80212C2000F04EFB0DF107034C
:1045F00006226C21D620FFF7ABFF9DF807301B0980
:104600008DF80730CCB180220120114600F095FBD7
:10461000B0B19DF80730042B8CBF052200229B1AF5
:104620004FF416628DF807309DF8073003EB8303D3
:1046300003EB830302EB83022280002002B010BD53
:104640004FF46162F0E703460A222521D320FFF7E9
:104650007FBF03460A222521D920FFF779BF0346F1
:104660000A222521DE20FFF773BF13B5F821044687
:104670002F2000F009FB04220DF107033021DD207B
:10468000FFF766FF9DF8073003F00602042A05D104
:1046900020B90CB1DB08237002B010BD0320FBE78A
:1046A00037B50C4605460DF10701042000F0F9F975
:1046B000FF2C0BD0032C02D9072003B030BD9DF88E
:1046C000073023F003031C438DF80740FF2D09D06A
:1046D000072DF1D89DF8073023F0300343EA051089
:1046E0008DF807009DF80710042000F0E6F9E4E7D4
:1046F00070B51E4600F13803DBB2012B05460C46AF
:104700003FD8FF2922D1FF2A2FD1324603210A2088
:1047100000F0FAFA1C4800F09FFB1B4800F0A6FBD3
:10472000284600F05EFA0A21184800F079FB10F4E0
:10473000806424D182001AD40C244FF4C05000F0BD
:104740008BFB114800F09EFB204670BDFF2A4FF006
:10475000700101D041F00F0104F0700402F00F026B
:1047600022432A2000F0D0FACFE70021F2E70A2105
:104770004FF4007000F054FB8305DDD5DDE71D2408
:10478000DBE70724E0E700BF00060020000400206C
:1047900010B50446C1B2232000F08FF9210A22206F
:1047A000BDE8104000F089B913B51F200DF10701D5
:1047B00000F077F99DF807000DF1070180098DF8E9
:1047C000070004021E2000F06CF99DF8070020434A
:1047D00002B010BDB0F5803F38B504461DD33F345C
:1047E000B4F5800F2ABF4FF6FF74002507254FF060
:1047F000010238BFA409A3010A4912200B6001215C
:1048000000F082FAC4F30721102000F056F9E1B25B
:10481000112000F052F9284638BD00220346154603
:10482000EAE700BFAC22002010B50446010A1320BD
:1048300000F043F9E1B21420BDE8104000F03DB9AA
:1048400010B50C46FFF7F0FF2246E021122000F0E1
:104850005BFA14B9E02000F0C4F9002010BD37B5B0
:10486000002405460DF107013F208DF8074000F0B8
:1048700018F99DF8073003F0F802282A07D115B976
:10488000012003B030BD03F007032B70F8E720468A
:10489000F7E70000012210B511461E4802F010F99A
:1048A000C12000F09EF90421012000F006F900204B
:1048B000FFF7D5FF58B300F057FA00F0F7FA0022DF
:1048C000154B182101201A6000F0F2F91022042083
:1048D000114600F01CFAFFF719FE0446A8B9FFF7CD
:1048E00069FEB0F5616F2CBF002201228021D20148
:1048F000012000F009FA4821022000F0C5F94FF02C
:10490000FF3000F0BFFA00F0C1FA204610BD2424A9
:10491000FBE700BF00080242AC22002010B502787D
:104920004378F2B19A1E022A26D87824C3F10401F2
:104930004901C9B283785A1E062A1DD8C278032AB3
:104940001AD8C3F1070343EAC2031943C9B20920C5
:1049500000F0B3F822467821032000F0D5F90020BA
:1049600010BDDA1E032A07D8C3F10601C378490136
:10497000C9B20BB17024DDE70720F1E70A46002138
:1049800020F026B938B50D46044618B10A46002174
:1049900038F022F82A462146BDE83840002020F0B1
:1049A00017B900000B4A137801331370BFF34F8F10
:1049B0004FF40062084BC3F88020BFF34F8FBFF362
:1049C0006F8FBFF34F8FBFF36F8F0022012103481A
:1049D00002F076B85641022000E100E000080242F1
:1049E000012208B51146074802F06AF8064A137812
:1049F000013BDBB213701BB94FF40062034B1A602A
:104A000008BD00BF000802425641022000E100E05C
:104A100073B504460D461646FFF7C4FF630607D577
:104A2000FB2301210DF107008DF80730FFF7A6FFEA
:104A30000DF10700012144F040048DF80740FFF715
:104A40009DFF31462846FFF79DFF02B0BDE870404C
:104A5000FFF7C6BF73B504460D461646FFF7A2FF23
:104A6000630607D5FB2301210DF107008DF8073000
:104A7000FFF784FF24F040030DF1070001218DF8BA
:104A80000730FFF77BFF31462846FFF777FFFFF738
:104A9000A7FF32462946204602B0BDE8704000F02C
:104AA00007BA08B50122FFF7B3FF002008BD08B51B
:104AB0000AB1FFF7ADFF002008BD07B501228DF850
:104AC00007100DF10701FFF7C5FF002003B05DF8E7
:104AD00004FBB1F5007F37B505460C4614D811B973
:104AE000002003B030BDFFF75DFF80230DF107000C
:104AF00001218DF80730FFF741FF21462846FFF7D7
:104B00003DFFFFF76DFFEBE70720EAE737B5054606
:104B10000C4679B1FFF746FF9F2301210DF10700F5
:104B20008DF80730FFF72AFF21462846FFF72AFFB6
:104B3000FFF756FF002003B030BD302937B50546DA
:104B40000C4614D811B9002003B030BDFFF72AFF7E
:104B5000A0230DF1070001218DF80730FFF70EFFAC
:104B600021462846FFF70AFFFFF73AFFEBE7072049
:104B7000EAE7212937B505460C4614D811B90020BB
:104B800003B030BDFFF70EFFA8230DF10700012190
:104B90008DF80730FFF7F2FE21462846FFF7EEFEBC
:104BA000FFF71EFFEBE70720EAE70C2937B50546BC
:104BB0000C4614D811B9002003B030BDFFF7F2FE47
:104BC000AC230DF1070001218DF80730FFF7D6FE69
:104BD00021462846FFF7D2FEFFF702FFEBE707204A
:104BE000EAE713B50446FFF7DDFE64F03F03012159
:104BF0000DF107008DF80730FFF7C0FEFFF7F0FE5C
:104C0000204600F056F9002002B010BD37B50D4621
:104C10000446FFF7C7FEFC230DF1070001218DF8C4
:104C2000073044F04004FFF7A9FE0DF10700012111
:104C30008DF80740FFF7A2FE28460121FFF7A2FEEC
:104C4000FFF7CEFE002003B030BD13B504468DF84B
:104C50000610FFF7A7FEFC230DF1070001218DF8D8
:104C60000730FFF78BFE0DF1070001218DF807409B
:104C7000FFF784FE0DF106000121FFF77FFEFFF72D
:104C8000AFFE002002B010BD37B50C4601220DF179
:104C900007010546FFF7BCFE9DF8071011EA040066
:104CA00004D0284621EA0401FFF707FF03B030BD16
:104CB00037B50C4601220DF107010546FFF7A8FEA6
:104CC0009DF8073043EA04019C4304D02846FFF7CF
:104CD000F4FE03B030BD0020FBE773B50C4616466A
:104CE0000DF1070101220546FFF792FE9DF80730FE
:104CF00023EA040131438B4204D02846FFF7DDFE4E
:104D000002B070BD0020FBE70A40FFF7E6BF73B5B5
:104D10000C460DF1070105461646FFF777FF50B91F
:104D20009DF8073023EA0401344021438B4202D02E
:104D30002846FFF78AFF02B070BD002337B50C4646
:104D400015460DF107018DF80730FFF7AAFE9DF813
:104D5000073004EA0300431B5842584103B030BDFA
:104D6000C043C0F3C01070470022034B5A601A6062
:104D70009A60DA60704700BFB02200204FF0FF3326
:104D800037B500240C4D01930121284601F092FE15
:104D9000012808D0094B9A6822439A60986800F06D
:104DA00086F803B030BD04221A200DEB0201FFF794
:104DB0007EFE019B1C43E7E700100242B022002068
:104DC00010B5FFF7DBFF044B5A681AB1BDE810407D
:104DD0005B68184710BD00BFB022002070B50025E9
:104DE0000E4C81EA0006E3681E40E3684E4023EA69
:104DF0000003E360E3680B43E360EA0026FA02F392
:104E0000DBB23BB1E16805F11600D140C9B2C0B2D6
:104E1000FFF753FE0135042DEFD170BDB022002005
:104E20002DE9F041054608460E4600F043F880465D
:104E3000084CA76840462F4000F042F800B10EB978
:104E4000002FF6D0A068A368284023EA0003A360DF
:104E5000BDE8F081B0220020034A936818401EBFCD
:104E60009368834393607047B02200200021FFF7CE
:104E7000B5BF014608B5FFF7EFFFBDE8084008469B
:104E8000FFF7F4BF01460020FFF7A8BF07B50422D3
:104E90001A200DEB0201FFF70AFE0022024B9A6076
:104EA00003B05DF804FB00BFB022002070477047DC
:104EB0007047704710B5044600F03AF8204410BD22
:104EC00010B5044600F034F8201AC00F10BD0000E1
:104ED00010B5032000F032F803F0E2F90B4B0C4A56
:104EE0001B6A03F00F03D35CD8400A4B1860042000
:104EF00000F098F80F20FCF76FFF044618B9FCF794
:104F000077FD204610BD0124FBE700BF000C0244E2
:104F1000E901040814000020034A044B11681B78BF
:104F20000B441360704700BFC0220020180000200F
:104F3000014B1868704700BFC022002007490302D8
:104F4000CA6803F4E06322F4E0621204120C134313
:104F500043F0BF6343F40033CB60704700ED00E0E3
:104F6000154B30B5DC68C4F30224C4F10703251DDA
:104F7000042B28BF0423062D4FF0FF3594BF0024D7
:104F8000033C05FA03F321EA0303A54022EA0502E4
:104F9000A340002843EA0203ACBF00F16040074A87
:104FA0004FEA0313DBB2ABBF00F5614000F00F0026
:104FB00080F80033135430BD00ED00E014ED00E044
:104FC000002807DB01234109034A00F01F0083404A
:104FD00042F82130704700BF00E100E000280CDB00
:104FE00001220649430900F01F008240203341F8A6
:104FF0002320BFF34F8FBFF36F8F704700E100E0B6
:10500000BFF34F8F0549064BCA6802F4E0621343B1
:10501000CB60BFF34F8F00BFFDE700BF00ED00E0A6
:105020000400FA05042818D8DFE800F00A1826174B
:1050300003004FF0E022136943F00403136170474B
:105040004FF0E022136923F004031361114AD2F8F0
:10505000E43023F00C03C2F8E43070474FF0E02254
:10506000136923F0040313610A4AD2F8E43023F0F1
:105070000C0343F00403EEE74FF0E022136923F042
:1050800004031361034AD2F8E43023F00C0343F025
:105090000803E0E7000C0244BFF35F8F064B40F0CB
:1050A0000100C3F894005A6A42F480325A62BFF396
:1050B0004F8FBFF36F8F704700ED00E0BFF35F8F3E
:1050C000074B5A6A22F480325A62D3F8942022F0B5
:1050D0000102C3F89420BFF34F8FBFF36F8F704767
:1050E00000ED00E0BFF35F8F104A4378C2F89830BC
:1050F000D2F8A03023F00103C2F8A0304368817BCE
:1051000023F01F030B43C17B43EAC103417B43EA06
:105110004103C2F89C308368017823F01F030B43DE
:10512000017B43EA4103C2F8A030704700ED00E084
:1051300010B5BFF35F8FFF2403784078032B92BF35
:1051400006490749043B0A68DB009C4022EA040246
:1051500000FA03F313430B6010BD00BFC0ED00E085
:10516000C4ED00E0F0B50C4622F003050668970890
:105170000D44A54208D112F003021ED0012A14D119
:1051800011F82730337018E0637894F800C01B04DE
:1051900043EA0C6394F803C0043443EA0C0314F8A4
:1051A00002CC43EA0C233360E3E76B78022A11F860
:1051B000272043EA0223338002D103681868F0BD38
:1051C000AB78DFE700230068F0B555088E1C9D42E0
:1051D00006D1D30744BF31F8253003800068F0BD05
:1051E00031F8237036F82340013344EA0744046061
:1051F000EDE7000010B5044608B9012010BD437F5B
:1052000003F0FF0213B90277FCF704FC0223637773
:105210002379E3B92368134A5A619A6822F0180285
:105220009A6062792368D2B94FF0FF321A619A68A6
:10523000616922F060020A439A609A68A16922F0CB
:1052400080020A439A60012300206377D6E7204654
:10525000D4E9021200F064F80028E2D0CDE7226918
:10526000E4E700BFB71DC10438B5054690B1437FE0
:10527000022BDCB20CD002230024437703689A6827
:1052800042F001029A605C60FCF7DCFB6C772C77E3
:10529000204638BD0124FBE770B502264677066A32
:1052A0000446022E15D0032E05D0012E0ED000206C
:1052B0000123637770BD036801EB8205A94201D128
:1052C0001868F5E751F8042B1A60F7E7FFF74AFF73
:1052D000EEE7FFF777FFEBE7F8B5022646770668BB
:1052E0000446B76847F00107B760076A022F14D079
:1052F000032F05D0012F0DD0002001236377F8BDC7
:1053000001EB8205A94201D13068F6E751F8043B70
:105310003360F7E7FFF726FFEFE7FFF753FFECE710
:10532000CB0710B50DD51F23013B1DD321FA03F484
:10533000E407F9D5102A13D0102A04D83AB1082A64
:1053400010D001200BE0182AFBD1062BF9D80068F9
:105350004161836823F0180313438360002010BD6C
:10536000072BF3E70F2BF1E7102AE5D1E9E700005F
:1053700038B50446FFF7DCFD0546002C00F0A5819A
:10538000002384F84C300223226884F85430536997
:1053900043F00603536123685A69D20700F18A81FA
:1053A0005A69216A22F443020A435A61E169626937
:1053B000B04D0A432169AB4242EA0102A169AE48FD
:1053C00042EA010200F08880AC498B4200F0848000
:1053D00001F1704180318B427ED001F180518B42CE
:1053E0007AD001F1704180318B4275D001F180514A
:1053F0008B4271D001F1704180318B426CD001F150
:1054000080518B4268D001F1704180318B4263D072
:1054100001F180518B425FD001F1704180318B42AC
:105420005AD001F180518B4256D0834254D0803102
:105430008B4251D001F1704180318B424CD001F14F
:1054400080518B4248D001F1704101F548618B4297
:1054500042D001F180518B423ED001F17041803148
:105460008B4239D001F180518B4235D001F170412E
:1054700080318B4230D001F180518B422CD001F130
:10548000704180318B4227D001F180518B4223D073
:1054900001F1704180318B421ED001F180518B426D
:1054A0001AD001F1704180318B4215D001F1805149
:1054B0008B4211D001F1704180318B420CD001F14F
:1054C00080518B4208D001F1704180318B4203D072
:1054D00001F180518B420DD1A16A0139090501F01A
:1054E0007C711143E26A1143626A013A120102F4CB
:1054F0007C720A43196C01F080210A431A64A16886
:10550000226B114322791143E268B2F5806F40F0BB
:10551000DE80AB4200F08880584A934200F08480DD
:1055200002F17042803293427ED002F18052934267
:105530007AD002F170428032934275D002F18052EB
:10554000934271D002F17042803293426CD002F1EA
:105550008052934268D002F170428032934263D00D
:1055600002F1805293425FD002F170428032934246
:105570005AD002F18052934256D0834254D08032A6
:10558000934251D002F17042803293424CD002F1EA
:105590008052934248D002F1704202F54862934231
:1055A00042D002F1805293423ED002F170428032EA
:1055B000934239D002F18052934235D002F17042C9
:1055C0008032934230D002F1805293422CD002F1CB
:1055D00070428032934227D002F18052934223D00E
:1055E00002F17042803293421ED002F18052934207
:1055F0001AD002F170428032934215D002F18052EB
:10560000934211D002F17042803293420CD002F1E9
:105610008052934208D002F170428032934203D00C
:1056200002F18052934201D141F480615A6C656B62
:1056300022F0434222F47F1222F4F75222F01F029A
:105640002A430A435A64002283429A6427D00C4AB0
:10565000934224D002F17042803293421FD002F173
:10566000805293421BD002F1704202F5786293425D
:1056700015D007E050000240500302405000025095
:105680005003025002F18052934208D002F170425E
:105690008032934203D002F18052934202D1002221
:1056A0005A659A650020D8670123A065256584F8AE
:1056B00054300BE0FFF73CFC401B05287FF66BAE37
:1056C0001023A365032384F85430012038BDB2F5BC
:1056D000007F08BF41F40071A8E700BF70B5044621
:1056E000FFF726FC0646002C66D025686B6943F060
:1056F00006036B6123685A6912F0010252D11A60E5
:105700005A611A645A649A64DA641A65DA672B4A31
:1057100093421FD002F1805293421BD002F170429B
:105720008032934216D002F18052934212D002F19D
:10573000704202F5786293420CD002F1805293429B
:1057400008D002F170428032934203D002F18052BD
:10575000934202D100225A659A6525F47F620125A1
:10576000C3F30B0122F00F0250395068C1F3C4118A
:1057700005FA01F120EA010151604FF4FE42DA60BE
:105780000023E26DC4E91833C4E91A33C4E91C33B9
:1057900002B1E365A3650020236584F8543084F8E2
:1057A0004C300AE0FFF7C4FB801B0528A2D9102368
:1057B000A365032384F85430012070BD50030240D8
:1057C00030B5002836D090F84C40012C34D001245C
:1057D00080F84C4090F85440012C4FF0000425D143
:1057E000022580F85450846504689BB2A56C2D0C8A
:1057F0002D041D434FF4FE43A564E360E16422657C
:10580000636943F4BA436361436E1BB1636943F454
:1058100000736361036F1BB1636943F400536361F9
:105820000020636943F00103636130BD402380F8C9
:105830004C4083650120F8E70220F6E738B50446BE
:10584000FFF776FB054644B194F85430022B06D09E
:105850002023A365002384F84C30012038BD226842
:10586000536943F004035361052384F854302368DB
:105870001A69900419D55A69216D42F002025A61E1
:10588000042284F854204FF4FE42DA600122090613
:1058900048BF616F84F854204FF0000042BF0A7384
:1058A00000229A6484F84C00D8E7FFF741FB401BC4
:1058B0000528DCD9A36D43F01003A365032384F806
:1058C0005430236D1D06C5D50122636F1A73C1E7DD
:1058D00028B190F85430022B03D020238365012097
:1058E00070470423026880F854305369002043F461
:1058F000005343F00403536170470121036810B55E
:1059000023F47F6222F00F020446D068C3F30B0237
:10591000503AC2F3C41201FA02F2024200F0AB8024
:105920001A69500508D55A69520505D54FF48062A9
:10593000DA60A26D0A43A2651A69100509D55A6991
:10594000110506D54FF40062DA60A26D42F0020242
:10595000A2651A69D20409D55A69D00406D54FF454
:105960008052DA60A26D42F00402A2651A69510405
:1059700009D55A69520406D54FF48042DA60A26D07
:1059800042F00802A2651A69900509D55A69910585
:1059900006D54FF40072DA60636E0BB1204698476B
:1059A00023681A6992042ED55A6990042BD54FF4B6
:1059B0000052DA6094F85420042A1DD15A69216DEE
:1059C00022F400525A615A69090642F002025A61F1
:1059D0004FF0010248BF616F84F8542042BF0A7340
:1059E00000229A64002384F84C30E36E002B42D0EE
:1059F0002046BDE810401847052384F85430236F33
:105A00000BB12046984723681A69D20518D55A6900
:105A1000D00515D5226D110626D5DA6F32B99A6CEC
:105A200022B90122616F84F854200A734FF4407246
:105A3000DA60002384F84C30236E0BB1204698477F
:105A4000A36DC3B12268536943F00203536101237C
:105A5000226D84F85430120644BF626F1373002322
:105A600084F84C30A36EC1E79A6C002ADED1012283
:105A700084F85420DAE710BDD0B1CB0601D4002061
:105A800070470368012023F47F62C3F30B0322F005
:105A90000F0201F01101503B1129C3F3C4135168E7
:105AA00000FA03F30CBF0B4321EA03035360E6E75C
:105AB0000120704741EA0203034318B949B9002A9B
:105AC00018BF10465840B0F5803F34BF0020012079
:105AD00070470846F6E750B190F8203059B992B1B6
